:020000040000FA
:030000000200DB20
:030013000204FCE8
:030063000204B5DF
:10007B0002048400000080FB12010BB90003020094
:10008B00C5E4900200784679018002F0A3D8FCD930
:10009B00FA900245AA82AB8390010E7860790180B9
:1000AB0015E493A3AC82AD838A828B83F0A3AA82DF
:1000BB00AB838C828D83D8E9D9E775822D75830844
:1000CB0074001200ED75827E75830074001200EDD2
:1000DB0075D0007581BF751000751102759F0002F8
:1000EB000083C09FF59FE473D09F22D083D082C042
:1000FB009FE493C0E0740193C0E0740293F59F22D8
:10010B00790122543A0020483A00204C3A000D0A5B
:10011B00005345542054454D505F54483D005345C2
:10012B00542048554D495F54483D004343323533C5
:10013B0030204D6F6E69746F722052656164790D5A
:10014B000A0054454D505F54483D002048554D49D9
:10015B005F54483D004448543131204552523A00D7
:10016B001C3C1200F6020E001200F6110E001200DB
:10017B00F6220E001200F6360E001200F63B0E00B1
:10018B001200F60309001200F62009001200F647D0
:10019B0009001200F64D09001200F6530900120077
:1001AB00F66609001200F6C909001200F6A00A0053
:1001BB001200F6B70A001200F6D00A001200F6DBA6
:1001CB000A001200F6130B001200F6DF0C001200EF
:1001DB00F60B0D001200F6250D001200F6370D0080
:1001EB001200F6560D001200F64505001200F654EB
:1001FB0005001200F66E05001200F6C6050012008F
:10020B00F6FA05001200F66206001200F6A10600CF
:10021B001200F61707001200F67A0D001200F69383
:10022B000D001200F6C40D001200F6E40B001200D4
:10023B00F6160C001200F6210C001200F64A0C0008
:10024B001200F6910C00C3E498F8E499F9120292AB
:10025B008026C3E49AFAE49BFBE920E7E9120292B9
:10026B00E498F8E499F922C3E498F8E499F91202B6
:10027B0092E498F8E499F9C3E49AFAE49BFB22EB35
:10028B0020E7CFE920E7E0B90010BB0008E88AF0CF
:10029B0084F8AAF022E4FBC8FA22EB70227B10C888
:1002AB0033C8C933C9335007C39AC3DBF280069AEC
:1002BB0050012ADBEAC833F4C8C933F4C9FA2275F2
:1002CB00F008E4C833C8C933C933C99AC99B500471
:1002DB00C92AC93BD5F0ECFBC833F4C8E4C9FA22F0
:1002EB00251010AF08F510400215118008F51040CD
:1002FB00021511D2AF22C0D0251010AF08F5105047
:10030B000205118008F51050020511D2AFD0D02292
:10031B002510C582C0E0E51134FFC583C0E0E510B0
:10032B00C3958224F810AF0885831185821080084D
:10033B00858311858210D2AFCEF0A3E520F0A37890
:10034B0008E608F0A3DEFAEFF0A3E58124FAF8E65D
:10035B0008F0A3E608F0A3E608F0A30808E608F007
:10036B00A3E608F0A315811581D0E0FED0E0F815C7
:10037B008115811581E8C0E0EEC0E02285118385EF
:10038B001082E0A3FEE0A3F5207808E0A3F608DFD7
:10039B00FAE0A3FFE0A3C0E0E0A3C0E0E0A3C0E06D
:1003AB00E0A3C0E0E0A3C0E010AF08858210858316
:1003BB00118008858210858311D2AFD083D0820241
:1003CB0000F3C0D02510C582C0E0E51134FFC58312
:1003DB00C0E0E510C3958224F310AF088583118527
:1003EB0082108008858311858210D2AFC8F0A3E9F3
:1003FB00F0A3EAF0A3EBF0A37908E709F0A3D8FA8E
:10040B00ECF0A3EDF0A3EEF0A3EFF0A3D0E0F0A39C
:10041B00D0E0F0A3D0E0F0A3E520F0A3E5F0F0A34B
:10042B0022851183851082E0C0E0A3E0F9A3E0FAF6
:10043B00A3E0FBA37808E0F608A3DFFAE0FCA3E057
:10044B00FDA3E0FEA3E0FFA3E0C0E0A3E0C0E0A3B8
:10045B00E0F5D0A3E0F520A3E0A3F5F010AF0885FD
:10046B0083118582108008858311858210D2AFD0CD
:10047B0082D083D0E0F8D0E032C0E0C0D0C082C0E0
:10048B0083538D9F538A9FC2EB900200E0701290B2
:10049B0002007401F09002017400F09002027400EB
:1004AB00F0D083D082D0D0D0E032C0E074F212030F
:1004BB00CDA2DC5037C2DC1201CD12020312022D89
:1004CB0012020990020BE02401F0A3E03400F0903B
:1004DB00020BC3E094D0A3E09407401090020B747E
:1004EB0000F0A37400F090020D7401F07F01020480
:1004FB002CC0E074F21203CDC28B900243E0F8796A
:10050B00002401F8E93400F97A207B0012028AEA10
:10051B00FA900244E06A601DE5C1C0E0900243E03E
:10052B00F87900742328F582740239F583D0E0F052
:10053B00EA900243F07F0102042C53C6BFE59EA252
:10054B00E640FA53C6C00200F375EB0075EC447538
:10055B00EDF953D8E7D2BC75EBE243EB0443EB1058
:10056B000200F3C008C009E9FCECC3940B500479FA
:10057B00008041ECC394F5400479FF80378C0875FB
:10058B000900E50824F6F8E50934FFF9E875F0FFF2
:10059B00A4C8AAF075F000A42AFA75F0FFE9A42A02
:1005AB00F97AEB7B0012029288088909A808A9093D
:1005BB00E508A908D009D0080200F3C082C08390D7
:1005CB000209E02401F0900209E0C3943240199033
:1005DB0002097400F0120173E990020AF090020A0A
:1005EB00E0F91201FD120227D083D0820200F3C082
:1005FB0082C083900204E06057900205E02401F072
:10060B00A3E03400F0900205C3E094C8A3E094008B
:10061B0040169002057400F0A37400F0A2975005E9
:10062B00120185800312017F900207E02401F0A3E1
:10063B00E03400F0900207C3E09464A3E094004020
:10064B000F9002077400F0A37400F079011201EB14
:10065B00D083D0820200F3C082C0837A457B021222
:10066B00023F90020EE0F91202457A487B02120219
:10067B003F90020FE0F91202457A4C7B0212023FC7
:10068B0090020AE0F91202457A507B0212023FD027
:10069B0083D0820200F374F612031BE9FF78007912
:1006AB00007E008036E875F00AA4C8ACF075F00047
:1006BB00A42CFC75F00AE9A42CF98E08750900EA44
:1006CB002508F582EB3509F583E0FC7D0024D0FC91
:1006DB00ED34FFFDE82CF8E93DF90EEEC39F501801
:1006EB008E08750900EA2508F582EB3509F583E0DC
:1006FB00C39430C3940A40ADC3E89400E99401401D
:10070B000478FF7900E8F97F02020387C082C08377
:10071B0074FF1202EB8047900210E064487039902E
:10072B000211E064487031900212E0643A70299033
:10073B000220E024FDF97A137B02120215E99002E4
:10074B00A3F07A607B0212023F9002A3E0F912023F
:10075B00457A507B0212023F9002207400F0851004
:10076B0082851183AA82AB8312024BE970030208C4
:10077B0021851082851183E0640A600B85108285C8
:10078B001183E0640D7056900220E0C3940440C8BE
:10079B00900210E064546003020722900211E0649F
:1007AB00486003020722900212E0643A60030207DA
:1007BB0022900220E024FDF97A137B02120215E944
:1007CB009002A2F07A537B0212023F9002A2E0F950
:1007DB001202457A507B0212023F020763900220FD
:1007EB00E0C3940F5027851082851183E0C0E09001
:1007FB000220E0F87900741028F582740239F58331
:10080B00D0E0F0900220E02401F002076990022072
:10081B007400F00207697401120301D083D08202C5
:10082B0000F31201F11201D91201791201C7120161
:10083B006D1202211201A31202331201F7D2AF7A09
:10084B006D7B0212023F7A847B0212023F9002A25E
:10085B00E0F91202457A8D7B0212023F9002A3E06F
:10086B00F91202457A507B0212023F80167A977B6F
:10087B000212023FEEF91202457A507B0212023F3E
:10088B0012021B90020DE060F790020D7400F0C293
:10089B00AF7C0F7D027A0E7B021201AFE9FED2AF65
:1008AB00EE70CA9002A2E0F890020EE0C398500DD1
:1008BB009002A3E0F890020FE0C39840229002044C
:1008CB00E070309002047401F09002057400F0A304
:1008DB007400F09002077400F0A37400F080149081
:1008EB000204E0600E9002047400F012018579019D
:1008FB001201DF12020F8088800800000000000048
:10090B000000EAF8EBF9E824FFFAE934FFFBE849C9
:10091B0070E80200F374F712031BEAFEEBFF80078B
:10092B007AE87B0312018BEEF8EFF9E824FFFEE97E
:10093B0034FFFFE84970E97F0102038743FF01029F
:10094B0000F353FFFE0200F3C082C08353F5FE1287
:10095B000197D2A0D083D0820200F374F712031B4D
:10096B007F0075080080147A017B0012018B1EA298
:10097B00A05006EEC3940150EE0508E508C3940899
:10098B005035EFC333FF7E6480087A017B00120180
:10099B008B1EA2A04006EEC3940150EEEE700479BC
:1009AB000080167A1E7B0012018BA2A050CBD3EFD6
:1009BB0092E0FF7E6480B8EFF97F0102038774F148
:1009CB0012031B8A088B09ECFEEDFF120197C2A0E4
:1009DB007A147B00120191D2A07A1E7B0012018B3C
:1009EB0012019D750A6480097A017B0012018B1537
:1009FB000AA2A05007E50AC3940150ECE50A700562
:100A0B007901020A9B750A6480097A017B00120145
:100A1B008B150AA2A04007E50AC3940150ECE50A26
:100A2B0070047901806A750A6480097A017B00126F
:100A3B00018B150AA2A05007E50AC3940150ECE5FF
:100A4B000A7004790180491201A9E9F50B1201A979
:100A5B00E9F50C1201A9E9F50A1201A9E9F50D1244
:100A6B0001A9E9F50E120197D2A0E50B250C250A79
:100A7B00250D650E600479028016E50B8E828F833F
:100A8B00E50BF0E50A850882850983E50AF0790014
:100A9B007F070203877900A2954005D3E992E5F918
:100AAB00A2964005D3E992E6F90200F3E9F8742027
:100ABB006870047901800B744068700479028002BD
:100ACB0079000200F3538A9FC2EB438D600200F35F
:100ADB00C082C08353F49F53FE9F53F69F53F7BFBF
:100AEB00438C049002007400F09002017400F090AB
:100AFB0002027400F09002037400F01201C1439AD9
:100B0B0010D083D0820200F374F712031B1201B5CD
:100B1B00E9FE900200E0600C14600C14603F14605E
:100B2B005E020BCA020BDF900201E02401F090027F
:100B3B0001E0C3941440249002017400F0EEF9120A
:100B4B0001BBE9900202F0EE700B9002007400F012
:100B5B001201C1807F9002007402F08077EE600E6C
:100B6B00EEF91201BBE970069002027400F0EE7010
:100B7B00639002007403F09002017400F0805590B2
:100B8B000201E02401F0EE600E9002007402F0907E
:100B9B0002017400F0803D900201E0C394144034D4
:100BAB009002017400F0900202E0900203F09002B8
:100BBB00027400F09002007400F01201C1801590D5
:100BCB0002007400F09002017400F09002027400B5
:100BDB00F01201C17F01020387C082C08353F1FE73
:100BEB0043F30C53FF3F7586C075C2D875C50B75A3
:100BFB00C402C2E9C28BD2AA9002437400F09002E5
:100C0B00447400F0D083D0820200F389C1A2E95072
:100C1B00FCC2E90200F374F712031BEAFEEBFF8040
:100C2B00128E828F83E0F91202398E828F83A3AEEC
:100C3B0082AF838E828F83E070E77F01020387741C
:100C4B00F712031BE9FE75F064EE84F875F00AC029
:100C5B00F0EE75F06484E5F0D0F084FFEE75F00AE9
:100C6B0084E5F0F508E8C394014007743028F912C5
:100C7B00023974302FF912023974302508F9120237
:100C8B00397F01020387C082C083900243E0F89052
:100C9B000244E068700479008033900244E0F879F4
:100CAB0000742328F582740239F583E08A828B83E2
:100CBB00F0900244E0F879002401F8E93400F97A65
:100CCB00207B0012028AEA900244F07901D083D093
:100CDB00820200F3E914600B14600F1460131460AC
:100CEB0017801AEAA2E092948013EAA2E092818024
:100CFB000CEAA2E092908005EAA2E092910200F346
:100D0B00C082C08353F4EC43FE1353F3FD43FD0247
:100D1B001201E5D083D0820200F374F712031BE9B2
:100D2B00FE7A01F91201D37F01020387C082C083CF
:100D3B0079011201DF79021201DF79031201DF79E8
:100D4B00041201DFD083D0820200F3E914600B148C
:100D5B00600D14600F1460118012639010800D638E
:100D6B008002800863900180036390020200F3C04D
:100D7B0082C083D2819002217400F0900222740011
:100D8B00F0D083D0820200F3C082C083E9FCF879F3
:100D9B0000E875F014A4C8AAF075F000A42AFA753F
:100DAB00F014E9A42AF97AFF7B00120292E8900270
:100DBB0022F0D083D0820200F3C082C08390022144
:100DCB00E02401F0900221E0C3941440069002212C
:100DDB007400F0900222E07004D281801390022202
:100DEB00E0F8900221E0C3985004C2818002D281C6
:100DFB00D083D0820200F343F28043F38053FD7F14
:100E0B00438F800200F375B6B7E5B4A2E750FAE55D
:100E1B00BAF8A9BB0200F3C082C08353F47F43FE30
:100E2B0080120185D083D0820200F3D2970200F3A7
:050E3B00C2970200F364
:04000005000000DB1C
:00000001FF
