:020000040000FA
:030000000200DB20
:030063000203C7CE
:10007B0002039600000080FB12010BB90003020083
:10008B00C5E4900200780979018002F0A3D8FCD96D
:10009B00FA900208AA82AB8390010E780279018054
:1000AB0015E493A3AC82AD838A828B83F0A3AA82DF
:1000BB00AB838C828D83D8E9D9E775821275830D5A
:1000CB0074001200ED75827E75830074001200EDD2
:1000DB0075D0007581BF751000751102759F0002F8
:1000EB000083C09FF59FE473D09F22D083D082C042
:1000FB009FE493C0E0740193C0E0740293F59F22D8
:10010B00790122011200F6C70E001200F6DB0E0079
:10011B001200F6970A001200F6AE0A001200F6C79C
:10012B000A001200F6D20A001200F60A0B001200A7
:10013B00F6DB0B001200F62A0E001200F6560E002C
:10014B001200F6700E001200F6820E001200F694EA
:10015B000E001200F6B30E001200F6F10B001200A7
:10016B00F6000C001200F61A0C001200F62B0C0015
:10017B001200F6530C001200F67F0C001200F6A6CC
:10018B000C001200F6DF03001200F621040012002F
:10019B00F67804001200F6AE04001200F60D08000B
:1001AB001200F6D008001200F65309001200F6B048
:1001BB0009001200F62B0D001200F6610D00120063
:1001CB00F6690D001200F6710D001200F6790D00A4
:1001DB001200F6810D001200F69B0D001200F6B80E
:1001EB000D001200F6D50D00251010AF08F51040CC
:1001FB000215118008F51040021511D2AF22C0D0A4
:10020B00251010AF08F510500205118008F510509D
:10021B00020511D2AFD0D0222510F582E43511F5AD
:10022B0083222510C582C0E0E51134FFC583C0E0F1
:10023B00E510C3958224F810AF08858311858210D1
:10024B008008858311858210D2AFCEF0A3E520F014
:10025B00A37808E608F0A3DEFAEFF0A3E58124FA11
:10026B00F8E608F0A3E608F0A3E608F0A30808E612
:10027B0008F0A3E608F0A315811581D0E0FED0E0CD
:10028B00F8158115811581E8C0E0EEC0E0228511DB
:10029B0083851082E0A3FEE0A3F5207808E0A3F6A7
:1002AB0008DFFAE0A3FFE0A3C0E0E0A3C0E0E0A317
:1002BB00C0E0E0A3C0E0E0A3C0E010AF088582106F
:1002CB008583118008858210858311D2AFD083D0AE
:1002DB00820200F3C0D02510C582C0E0E51134FFC7
:1002EB00C583C0E0E510C3958224F310AF08858366
:1002FB00118582108008858311858210D2AFC8F0DA
:10030B00A3E9F0A3EAF0A3EBF0A37908E709F0A3C4
:10031B00D8FAECF0A3EDF0A3EEF0A3EFF0A3D0E04E
:10032B00F0A3D0E0F0A3D0E0F0A3E520F0A3E5F03C
:10033B00F0A322851183851082E0C0E0A3E0F9A32E
:10034B00E0FAA3E0FBA37808E0F608A3DFFAE0FCF1
:10035B00A3E0FDA3E0FEA3E0FFA3E0C0E0A3E0C0A9
:10036B00E0A3E0F5D0A3E0F520A3E0A3F5F010AFF8
:10037B00088583118582108008858311858210D2B0
:10038B00AFD082D083D0E0F8D0E032C0E0C0D0C094
:10039B0082C083538D9F538A9FC2EB900200E07003
:1003AB00129002007401F09002017400F0900202AE
:1003BB007400F0D083D082D0D0D0E032C0E074F2A1
:1003CB001202DFA2DC5008C2DC1201331201877F5C
:1003DB000102033E74F712022DE9FE1201E1797856
:1003EB001201EDE9F508E50870071201E7790080C5
:1003FB002079001201EDE95208E50870071201E7B8
:10040B007900800DEEF91201EDE952081201E7A90E
:10041B00087F0102029974F712022DE9FFEAFE121E
:10042B0001E179781201EDE9F508E5087007120191
:10043B00E77900803379001201EDE95208E5087085
:10044B00071201E779008020EFF91201EDE952085C
:10045B00E50870071201E77900800DEEF91201ED46
:10046B00E952081201E7A9087F0102029974F712F9
:10047B00022DE9FEEAFF74075E44B0F912018DE923
:10048B00700479008018740F5FF912018DE9700404
:10049B007900800AEFC4540F4410F912018D7F01CB
:1004AB0002029974F612022D7800801388087509E0
:1004BB0000EA2508F582EB3509F5837400F008E8AE
:1004CB00C3940640E7E924E0606324EF6076147080
:1004DB000302056D14700302059D1470030205CD14
:1004EB0024FA604C24F670030205FD147003020617
:1004FB002D14700302065D24FA700302068D24FE90
:10050B0070030206BD1470030206ED14700302079C
:10051B001D24FE700302074D14700302077D147037
:10052B00030207AC1470030207DB02080802080879
:10053B008A828B83A37436F08A828B83A3A374364F
:10054B00F00208088A828B83A37442F08A828B8321
:10055B00A3A3747FF08A828B83A3A3A37440F002BE
:10056B0008088A828B837442F08A828B83A374611E
:10057B00F08A828B83A3A37451F08A828B83A3A30B
:10058B00A37449F08A828B83A3A3A3A37446F002BE
:10059B0008088A828B837421F08A828B83A374412F
:1005AB00F08A828B83A3A37445F08A828B83A3A3E7
:1005BB00A3744BF08A828B83A3A3A3A37431F002A1
:1005CB0008088A828B837418F08A828B83A3741435
:1005DB00F08A828B83A3A37412F08A828B83A3A3EA
:1005EB00A3747FF08A828B83A3A3A3A37410F0025E
:1005FB0008088A828B83747FF08A828B83A3744171
:10060B00F08A828B83A3A37441F08A828B83A3A38A
:10061B00A37422F08A828B83A3A3A3A3741CF0027E
:10062B0008088A828B83747FF08A828B83A3744938
:10063B00F08A828B83A3A37449F08A828B83A3A352
:10064B00A37449F08A828B83A3A3A3A37441F00202
:10065B0008088A828B83747FF08A828B83A3740948
:10066B00F08A828B83A3A37409F08A828B83A3A362
:10067B00A37409F08A828B83A3A3A3A37401F00252
:10068B0008088A828B83747FF08A828B83A37440E1
:10069B00F08A828B83A3A37440F08A828B83A3A3FB
:1006AB00A37440F08A828B83A3A3A3A37440F002AC
:1006BB0008088A828B83747FF08A828B83A37402EF
:1006CB00F08A828B83A3A37404F08A828B83A3A307
:1006DB00A37408F08A828B83A3A3A3A3747FF00275
:1006EB0008088A828B83743EF08A828B83A37441C1
:1006FB00F08A828B83A3A37441F08A828B83A3A39A
:10070B00A37441F08A828B83A3A3A3A3743EF0024C
:10071B0008088A828B83747FF08A828B83A3740987
:10072B00F08A828B83A3A37409F08A828B83A3A3A1
:10073B00A37409F08A828B83A3A3A3A37406F0028C
:10074B0008088A828B83747FF08A828B83A3740957
:10075B00F08A828B83A3A37419F08A828B83A3A361
:10076B00A37429F08A828B83A3A3A3A37446F002FC
:10077B0008088A828B837446F08A828B83A3744920
:10078B00F08A828B83A3A37449F08A828B83A3A301
:10079B00A37449F08A828B83A3A3A3A37431F08043
:1007AB005C8A828B837401F08A828B83A37401F041
:1007BB008A828B83A3A3747FF08A828B83A3A3A3E8
:1007CB007401F08A828B83A3A3A3A37401F0802D01
:1007DB008A828B83743FF08A828B83A37440F08A66
:1007EB00828B83A3A37440F08A828B83A3A3A3740D
:1007FB0040F08A828B83A3A3A3A3743FF07F0202F2
:10080B00029974F312022D74FA1201F3890AEAFEAB
:10081B00EBFF7A00A90A120199E970030208C612CC
:10082B0001E179781201EDE9F508E508700612018E
:10083B00E70208C679401201EDE95208E508700598
:10084B001201E78076750B00E50BC3947B505A8E33
:10085B00828F83E060538E828F83E0F98E828F8349
:10086B00A3AE82AF83851082851183AA82AB8312DC
:10087B00019F750C008004050B050CE50CC3940659
:10088B0050C6850C08750900851082851183E58299
:10089B002508F582E5833509F583E0F91201EDE9C9
:1008AB0070D51201E78014050BE50BC3948050083B
:1008BB0079001201EDE970EF1201E77406120209DB
:1008CB007F05020299C082C0831201DB79AE12014F
:1008DB008DE97A8079D5120193E97A3F79A81201D3
:1008EB0093E97A0079D3120193E9794012018DE9EA
:1008FB007A14798D120193E97A027920120193E926
:10090B0079A112018DE979C812018DE97A1279DA90
:10091B00120193E97ACF7981120193E97AF179D9AE
:10092B00120193E97A4079DB120193E979A4120160
:10093B008DE979A612018DE979AF12018DE91201CA
:10094B00B1D083D0820200F374F712022D7E0080A7
:10095B00041201E70EEEC3940850457A00EEF9122B
:10096B000199E9603B1201E179781201EDE9F50893
:10097B00E50870051201E7802779401201EDE95275
:10098B0008E50870051201E780167F0080010FEF64
:10099B00C3948050BC79001201EDE970F11201E7AC
:1009AB007F0102029974F712022D74F31201F3E91D
:1009BB00FEEAFFEE60238510828511837452F0747A
:1009CB00011202237455F07402120223744EF07458
:1009DB00031202237400F080298510828511837421
:1009EB0053F074011202237454F074021202237434
:1009FB004FF074031202237450F074041202237428
:100A0B0000F07405120223744CF074061202237466
:100A1B0045F074071202237444F074081202237415
:100A2B003AF0EE6020EFC39401C394045017743076
:100A3B002FC0E07409120223D0E0F0740A120223D3
:100A4B007400F080207409120223744FF0740A12A0
:100A5B0002237446F0740B1202237446F0740C12CA
:100A6B0002237400F0851082851183AA82AB8379EF
:100A7B00001201A57405120223AA82AB837902121C
:100A8B0001A5740D1202097F010202997900A2954A
:100A9B004005D3E992E5F9A2964005D3E992E6F930
:100AAB000200F3E9F874206870047901800B74403C
:100ABB006870047902800279000200F3538A9FC2A6
:100ACB00EB438D600200F3C082C08353F49F53FE4F
:100ADB009F53F69F53F7BF438C049002007400F0B2
:100AEB009002017400F09002027400F09002037403
:100AFB0000F0120127439A10D083D0820200F374C6
:100B0B00F712022D12011BE9FE900200E0600C149B
:100B1B00600C14603F14605E020BC1020BD6900296
:100B2B0001E02401F0900201E0C3941440249002F0
:100B3B00017400F0EEF9120121E9900202F0EE705F
:100B4B000B9002007400F0120127807F900200745A
:100B5B0002F08077EE600EEEF9120121E97006903B
:100B6B0002027400F0EE70639002007403F09002C6
:100B7B00017400F08055900201E02401F0EE600E4C
:100B8B009002007402F09002017400F0803D90021C
:100B9B0001E0C3941440349002017400F0900202FF
:100BAB00E0900203F09002027400F09002007400D7
:100BBB00F012012780159002007400F0900201746E
:100BCB0000F09002027400F01201277F01020299DB
:100BDB00C082C083900203E0F99002037400F0D04E
:100BEB0083D0820200F353C6BFE59EA2E640FA53C0
:100BFB00C6C00200F375EB0075EC4475EDF953D8E4
:100C0B00E7D2BC75EBE243EB0443EB100200F3C0FD
:100C1B0082C0839002087401F0D083D0820200F36B
:100C2B00C082C083900208E06017C2AF900204E05C
:100C3B00F9900205E0FA9002087400F0D2AF1201AD
:100C4B00B7D083D0820200F3C082C08390020474B9
:100C5B0001F09002057401F09002067400F0A37489
:100C6B0000F0900205E0F912015D12016FD083D004
:100C7B00820200F3C082C0839002047400F09002E1
:100C8B00057400F09002067400F0A37400F01201DA
:100C9B005712016FD083D0820200F3C082C083123F
:100CAB000139E9F8740168700512017B8008740240
:100CBB00687003120181900204E06044900206E028
:100CCB002401F0A3E03400F0900206C3E094C8A323
:100CDB00E09400402B9002067400F0A37400F09097
:100CEB000205E02401F0900205E0C3940540069054
:100CFB0002057401F0900205E0F912015D12016F1B
:100D0B00D083D0820200F312016312014512010F4E
:100D1B0012012D1201AB120169D2AF12017580FBCA
:100D2B00C082C08374FF1201F38510828511837416
:100D3B0000F0800A851082851183E02401F0851074
:100D4B0082851183E0C3940840EA7401120209D032
:100D5B0083D0820200F3D29253FEFB0200F3D293B4
:100D6B0053FEF70200F3C29243FE040200F3C29358
:100D7B0043FE080200F3C082C08353F4F353F6F32F
:100D8B0053F7BF1201C31201C9D083D0820200F303
:100D9B00C082C0831201C31201C91201BD1201CF5F
:100DAB001201BD1201D5D083D0820200F3C082C0E4
:100DBB00831201CF1201BD1201C91201BD1201C371
:100DCB001201BDD083D0820200F374F712022DE919
:100DDB00FF7E8080161201CF1201BD1201C91201D4
:100DEB00BD1201D51201BDEEC313FEEE6009EF5E1D
:100DFB0060E31201C380E11201C31201BD1201C9EC
:100E0B001201BDA2924004D2F08002C2F0A2F0E423
:100E1B0033FE1201D51201BDEEF97F01020299E9F1
:100E2B0014600B14600F146013146017801AEAA27D
:100E3B00E092948013EAA2E09281800CEAA2E09205
:100E4B00908005EAA2E092910200F3C082C0835326
:100E5B00F4EC43FE1353F3FD43FD02120157D08311
:100E6B00D0820200F374F712022DE9FE7A00F91218
:100E7B00013F7F0102029974F712022DE9FE7A01FC
:100E8B00F912013F7F01020299C082C083790112DE
:100E9B0001517902120151790312015179041201A6
:100EAB0051D083D0820200F374F712022DE9FE12A7
:100EBB000157EEF912014B7F01020299C082C083E8
:100ECB0053F47F43FE80120115D083D0820200F3CE
:050EDB00C2970200F3C4
:04000005000000DB1C
:00000001FF
