:020000040000FA
:030000000200DB20
:03006300020398FD
:10007B0002036700000080FB12010BB900030200B2
:10008B00C5E4900200780979018002F0A3D8FCD96D
:10009B00FA900208AA82AB8390010E780279018054
:1000AB0015E493A3AC82AD838A828B83F0A3AA82DF
:1000BB00AB838C828D83D8E9D9E775828C758304E9
:1000CB0074001200ED75827E75830074001200EDD2
:1000DB0075D0007581BF751000751102759F0002F8
:1000EB000083C09FF59FE473D09F22D083D082C042
:1000FB009FE493C0E0740193C0E0740293F59F22D8
:10010B00790122021200F64107001200F650070097
:10011B001200F66107001200F67507001200F627B1
:10012B0005001200F63E05001200F65705001200FE
:10013B00F66205001200F69A05001200F66B060037
:10014B001200F68106001200F6AD06001200F6C78B
:10015B0006001200F6D906001200F6EB060012009C
:10016B00F60A07001200F6B303001200F6C20300F2
:10017B001200F6DC03001200F60504001200F62351
:10018B0004001200F6A504001200F6FD0400120094
:10019B00F61E07001200F63C0700B90010BB000862
:1001AB00E88AF084F8AAF022E4FBC8FA22EB70226A
:1001BB007B10C833C8C933C9335007C39AC3DBF2AA
:1001CB0080069A50012ADBEAC833F4C8C933F4C954
:1001DB00FA2275F008E4C833C8C933C933C99AC9C0
:1001EB009B5004C92AC93BD5F0ECFBC833F4C8E4D7
:1001FB00C9FA222510C582C0E0E51134FFC583C0C2
:10020B00E0E510C3958224F810AF08858311858231
:10021B00108008858311858210D2AFCEF0A3E52024
:10022B00F0A37808E608F0A3DEFAEFF0A3E581244B
:10023B00FAF8E608F0A3E608F0A3E608F0A308082E
:10024B00E608F0A3E608F0A315811581D0E0FED0F7
:10025B00E0F8158115811581E8C0E0EEC0E022853C
:10026B001183851082E0A3FEE0A3F5207808E0A3BC
:10027B00F608DFFAE0A3FFE0A3C0E0E0A3C0E0E0F4
:10028B00A3C0E0E0A3C0E0E0A3C0E010AF0885820C
:10029B00108583118008858210858311D2AFD0839E
:1002AB00D0820200F3C0D02510C582C0E0E5113426
:1002BB00FFC583C0E0E510C3958224F310AF08851A
:1002CB0083118582108008858311858210D2AFC877
:1002DB00F0A3E9F0A3EAF0A3EBF0A37908E709F0A8
:1002EB00A3D8FAECF0A3EDF0A3EEF0A3EFF0A3D0BC
:1002FB00E0F0A3D0E0F0A3D0E0F0A3E520F0A3E57D
:10030B00F0F0A322851183851082E0C0E0A3E0F911
:10031B00A3E0FAA3E0FBA37808E0F608A3DFFAE07A
:10032B00FCA3E0FDA3E0FEA3E0FFA3E0C0E0A3E09D
:10033B00C0E0A3E0F5D0A3E0F520A3E0A3F5F01017
:10034B00AF08858311858210800885831185821003
:10035B00D2AFD082D083D0E0F8D0E032C0E0C0D0B2
:10036B00C082C083538D9F538A9FC2EB900200E0E3
:10037B0070129002007401F09002017400F0900270
:10038B00027400F0D083D082D0D0D0E032C0E074C1
:10039B00F21202B0A2DC500BC2DC12013F12018739
:1003AB001201937F0102030F53C6BFE59EA2E640E5
:1003BB00FA53C6C00200F375EB0075EC4475EDF90A
:1003CB0053D8E7D2BC75EBE243EB0443EB100200CE
:1003DB00F3C082C0839002047401F090020874028F
:1003EB00F09002057400F0A37400F0900208E0F99D
:1003FB00120169D083D0820200F3C082C0839002C5
:10040B00047400F09002057400F0A37400F0120164
:10041B0063D083D0820200F3C082C083120145E90E
:10042B00F8740168700512017B8008740268700310
:10043B00120181900204E06041900205E02401F07A
:10044B00A3E03400F0900205C3E094C8A3E094004D
:10045B0040289002057400F0A37400F0900208E0AD
:10046B002401F0900208E0C3940540069002087442
:10047B0002F0900208E0F9120169D083D0820200E9
:10048B00F312016F12015112011B12013912019962
:10049B0012010F120175D2AF80FEC008C009E9FC32
:1004AB00ECC3940B500479008041ECC394F54004E9
:1004BB0079FF80378C08750900E50824F6F8E50903
:1004CB0034FFF9E875F0FFA4C8AAF075F000A42A70
:1004DB00FA75F0FFE9A42AF97AEB7B001201A588E3
:1004EB00088909A808A909E508A908D009D00802B4
:1004FB0000F3C082C083900207E02401F090020752
:10050B00E0C39432400F9002077400F012011512F1
:10051B00018D12019FD083D0820200F37900A29546
:10052B004005D3E992E5F9A2964005D3E992E6F9A5
:10053B000200F3E9F874206870047901800B7440B1
:10054B006870047902800279000200F3538A9FC21B
:10055B00EB438D600200F3C082C08353F49F53FEC4
:10056B009F53F69F53F7BF438C049002007400F027
:10057B009002017400F09002027400F09002037478
:10058B0000F0120133439A10D083D0820200F3742F
:10059B00F71201FE120127E9FE900200E0600C1435
:1005AB00600C14603F14605E0206510206669002F6
:1005BB0001E02401F0900201E0C394144024900266
:1005CB00017400F0EEF912012DE9900202F0EE70C9
:1005DB000B9002007400F0120133807F90020074C4
:1005EB0002F08077EE600EEEF912012DE9700690A5
:1005FB0002027400F0EE70639002007403F090023C
:10060B00017400F08055900201E02401F0EE600EC1
:10061B009002007402F09002017400F0803D900291
:10062B0001E0C3941440349002017400F090020274
:10063B00E0900203F09002027400F090020074004C
:10064B00F012013380159002007400F090020174D7
:10065B0000F09002027400F01201337F0102026A73
:10066B00C082C083900203E0F99002037400F0D0C3
:10067B0083D0820200F3E914600B14600F14601333
:10068B00146017801AEAA2E092948013EAA2E09217
:10069B0081800CEAA2E092908005EAA2E09291029E
:1006AB0000F3C082C08353F4FC43FE0353F3FD43BA
:1006BB00FD02120163D083D0820200F374F71201A2
:1006CB00FEE9FE7A00F912014B7F0102026A74F710
:1006DB001201FEE9FE7A01F912014B7F0102026A57
:1006EB00C082C083790112015D790212015D790329
:1006FB0012015D790412015DD083D0820200F37484
:10070B00F71201FEE9FE120163EEF91201577F01A8
:10071B0002026A53F1DF43F41043FE1043F52075D8
:10072B00CB0075CE1C75CF0075CBE443CB1002000C
:10073B00F389CF0200F343F28043F38053FD7F43F1
:10074B008F800200F375B6B7E5B4A2E750FAE5BAAD
:10075B00F8A9BB0200F3C082C08353F47F43FE8031
:0F076B00120121D083D0820200F3C2970200F363
:04000005000000DB1C
:00000001FF
