:020000040000FA
:030000000200DB20
:030013000204F1F3
:030063000204AAEA
:10007B0002047900000080FB12010BB9000302009F
:10008B00C5E4900200784679018002F0A3D8FCD930
:10009B00FA900245AA82AB8390010E7855790180C4
:1000AB0015E493A3AC82AD838A828B83F0A3AA82DF
:1000BB00AB838C828D83D8E9D9E77582227583084F
:1000CB0074001200ED75827E75830074001200EDD2
:1000DB0075D0007581BF751000751102759F0002F8
:1000EB000083C09FF59FE473D09F22D083D082C042
:1000FB009FE493C0E0740193C0E0740293F59F22D8
:10010B00790122543A0020483A00204C3A000D0A5B
:10011B00005345542054454D505F54483D005345C2
:10012B00542048554D495F54483D004343323533C5
:10013B0030204D6F6E69746F722052656164790D5A
:10014B000A0054454D505F54483D002048554D49D9
:10015B005F54483D001E461200F6B00D001200F62B
:10016B00BF0D001200F6D00D001200F6E40D0012C8
:10017B0000F6E90D001200F6DD08001200F6FA0891
:10018B00001200F62109001200F62709001200F6F2
:10019B002D09001200F64009001200F6A309001207
:1001AB0000F67A0A001200F6910A001200F6AA0A6B
:1001BB00001200F6B50A001200F6ED0A001200F666
:1001CB00BD0C001200F6E90C001200F6030D001234
:1001DB0000F6150D001200F6340D001200F63A056C
:1001EB00001200F64905001200F66305001200F636
:1001FB00BB05001200F6EF05001200F657060012C1
:10020B0000F69606001200F60C07001200F6580DC9
:10021B00001200F6710D001200F6810D001200F6AF
:10022B00BE0B001200F6F10B001200F6FF0B0012D2
:10023B0000F6280C001200F66F0C00C3E498F8E4EB
:10024B0099F91202878026C3E49AFAE49BFBE92012
:10025B00E7E9120287E498F8E499F922C3E498F8E5
:10026B00E499F9120287E498F8E499F9C3E49AFA4D
:10027B00E49BFB22EB20E7CFE920E7E0B90010BBC2
:10028B000008E88AF084F8AAF022E4FBC8FA22EB13
:10029B0070227B10C833C8C933C9335007C39AC304
:1002AB00DBF280069A50012ADBEAC833F4C8C93363
:1002BB00F4C9FA2275F008E4C833C8C933C933C985
:1002CB009AC99B5004C92AC93BD5F0ECFBC833F43F
:1002DB00C8E4C9FA22251010AF08F5104002151119
:1002EB008008F51040021511D2AF22C0D025101096
:1002FB00AF08F510500205118008F51050020511DA
:10030B00D2AFD0D0222510C582C0E0E51134FFC595
:10031B0083C0E0E510C3958224F810AF08858311E4
:10032B008582108008858311858210D2AFCEF0A311
:10033B00E520F0A37808E608F0A3DEFAEFF0A3E5DA
:10034B008124FAF8E608F0A3E608F0A3E608F0A388
:10035B000808E608F0A3E608F0A315811581D0E0A4
:10036B00FED0E0F8158115811581E8C0E0EEC0E004
:10037B0022851183851082E0A3FEE0A3F520780887
:10038B00E0A3F608DFFAE0A3FFE0A3C0E0E0A3C020
:10039B00E0E0A3C0E0E0A3C0E0E0A3C0E010AF0842
:1003AB008582108583118008858210858311D2AFD9
:1003BB00D083D0820200F3C0D02510C582C0E0E507
:1003CB001134FFC583C0E0E510C3958224F310AF51
:1003DB00088583118582108008858311858210D250
:1003EB00AFC8F0A3E9F0A3EAF0A3EBF0A37908E719
:1003FB0009F0A3D8FAECF0A3EDF0A3EEF0A3EFF025
:10040B00A3D0E0F0A3D0E0F0A3D0E0F0A3E520F080
:10041B00A3E5F0F0A322851183851082E0C0E0A351
:10042B00E0F9A3E0FAA3E0FBA37808E0F608A3DF6A
:10043B00FAE0FCA3E0FDA3E0FEA3E0FFA3E0C0E035
:10044B00A3E0C0E0A3E0F5D0A3E0F520A3E0A3F583
:10045B00F010AF0885831185821080088583118584
:10046B008210D2AFD082D083D0E0F8D0E032C0E09F
:10047B00C0D0C082C083538D9F538A9FC2EB900222
:10048B0000E070129002007401F09002017400F011
:10049B009002027400F0D083D082D0D0D0E032C072
:1004AB00E074F21203C2A2DC5037C2DC1201C2129A
:1004BB0001F81202221201FE90020BE02401F0A3BC
:1004CB00E03400F090020BC3E094D0A3E09407401B
:1004DB001090020B7400F0A37400F090020D7401E5
:1004EB00F07F01020421C0E074F21203C2C28B90B0
:1004FB000243E0F879002401F8E93400F97A207B13
:10050B000012027FEAFA900244E06A601DE5C1C066
:10051B00E0900243E0F87900742328F582740239E5
:10052B00F583D0E0F0EA900243F07F0102042153FF
:10053B00C6BFE59EA2E640FA53C6C00200F375EBB8
:10054B000075EC4475EDF953D8E7D2BC75EBE2437B
:10055B00EB0443EB100200F3C008C009E9FCECC349
:10056B00940B500479008041ECC394F5400479FF5F
:10057B0080378C08750900E50824F6F8E50934FF87
:10058B00F9E875F0FFA4C8AAF075F000A42AFA7573
:10059B00F0FFE9A42AF97AEB7B001202878808891D
:1005AB0009A808A909E508A908D009D0080200F391
:1005BB00C082C083900209E02401F0900209E0C3DD
:1005CB00943240199002097400F0120168E990020C
:1005DB000AF090020AE0F91201F212021CD083D049
:1005EB00820200F3C082C083900204E06057900245
:1005FB0005E02401F0A3E03400F0900205C3E09481
:10060B00C8A3E0940040169002057400F0A3740098
:10061B00F0A297500512017A800312017490020721
:10062B00E02401F0A3E03400F0900207C3E09464EF
:10063B00A3E09400400F9002077400F0A37400F045
:10064B0079011201E0D083D0820200F3C082C08313
:10065B007A457B0212023490020EE0F912023A7ACA
:10066B00487B0212023490020FE0F912023A7A4CE4
:10067B007B0212023490020AE0F912023A7A507BA2
:10068B0002120234D083D0820200F374F6120310EC
:10069B00E9FF780079007E008036E875F00AA4C87F
:1006AB00ACF075F000A42CFC75F00AE9A42CF98EC3
:1006BB0008750900EA2508F582EB3509F583E0FC9E
:1006CB007D0024D0FCED34FFFDE82CF8E93DF90E5C
:1006DB00EEC39F50188E08750900EA2508F582EBCA
:1006EB003509F583E0C39430C3940A40ADC3E89455
:1006FB0000E99401400478FF7900E8F97F020203D6
:10070B007CC082C08374FF1202E08047900210E02D
:10071B0064487039900211E064487031900212E025
:10072B00643A7029900220E024FDF97A137B0212BF
:10073B00020AE9900298F07A607B0212023490026E
:10074B0098E0F912023A7A507B021202349002209E
:10075B007400F0851082851183AA82AB831202404C
:10076B00E97003020816851082851183E0640A6024
:10077B000B851082851183E0640D7056900220E08A
:10078B00C3940440C8900210E0645460030207173E
:10079B00900211E064486003020717900212E064B4
:1007AB003A6003020717900220E024FDF97A137BCD
:1007BB000212020AE9900297F07A537B021202347A
:1007CB00900297E0F912023A7A507B02120234023D
:1007DB000758900220E0C3940F5027851082851193
:1007EB0083E0C0E0900220E0F87900741028F582D5
:1007FB00740239F583D0E0F0900220E02401F0027E
:10080B00075E9002207400F002075E74011202F67C
:10081B00D083D0820200F31201E61201CE12016ED8
:10082B001201BC1201621202161201981202281256
:10083B0001ECD2AF7A6D7B021202347A847B021206
:10084B000234900297E0F912023A7A8D7B0212027F
:10085B0034900298E0F912023A7A507B0212023479
:10086B00801A900204E0600E9002047400F01201F2
:10087B007A79011201D412020412021090020DE0D7
:10088B0060F790020D7400F07C0F7D027A0E7B02F4
:10089B001201A4E970E3900297E0F890020EE0C316
:1008AB0098500D900298E0F890020FE0C39840B278
:1008BB00900204E070C09002047401F09002057481
:1008CB0000F0A37400F09002077400F0A37400F022
:1008DB0080A480080000000000000000EAF8EBF99B
:1008EB00E824FFFAE934FFFBE84970E80200F374EF
:1008FB00F7120310EAFEEBFF80077AE87B03120185
:10090B0080EEF8EFF9E824FFFEE934FFFFE84970C9
:10091B00E97F0102037C43FF010200F353FFFE0258
:10092B0000F3C082C08353F5FE12018CD2A0D0839A
:10093B00D0820200F374F71203107F007508008059
:10094B00147A017B001201801EA2A05006EEC39404
:10095B000150EE0508E508C394085035EFC333FF8B
:10096B007E6480087A017B001201801EA2A04006E3
:10097B00EEC3940150EEEE7004790080167A1E7B64
:10098B0000120180A2A050CBD3EF92E0FF7E6480D7
:10099B00B8EFF97F0102037C74F11203108A088B04
:1009AB0009ECFEEDFF12018CC2A07A147B00120140
:1009BB0086D2A07A1E7B00120180120192750A6406
:1009CB0080097A017B00120180150AA2A05007E56D
:1009DB000AC3940150ECE50A70057901020A75759A
:1009EB000A6480097A017B00120180150AA2A040DB
:1009FB0007E50AC3940150ECE50A70047901806A9B
:100A0B00750A6480097A017B00120180150AA2A085
:100A1B005007E50AC3940150ECE50A700479018094
:100A2B004912019EE9F50B12019EE9F50C12019E8C
:100A3B00E9F50A12019EE9F50D12019EE9F50E1278
:100A4B00018CD2A0E50B250C250A250D650E600443
:100A5B0079028016E50B8E828F83E50BF0E50A8514
:100A6B000882850983E50AF079007F0702037C7908
:100A7B0000A2954005D3E992E5F9A2964005D3E98A
:100A8B0092E6F90200F3E9F87420687004790180AA
:100A9B000B74406870047902800279000200F353F2
:100AAB008A9FC2EB438D600200F3C082C08353F474
:100ABB009F53FE9F53F69F53F7BF438C0490020046
:100ACB007400F09002017400F09002027400F09038
:100ADB0002037400F01201B6439A10D083D0820245
:100AEB0000F374F71203101201AAE9FE900200E062
:100AFB00600C14600C14603F14605E020BA4020BBC
:100B0B00B9900201E02401F0900201E0C39414407B
:100B1B00249002017400F0EEF91201B0E990020288
:100B2B00F0EE700B9002007400F01201B6807F9013
:100B3B0002007402F08077EE600EEEF91201B0E95C
:100B4B0070069002027400F0EE7063900200740362
:100B5B00F09002017400F08055900201E02401F046
:100B6B00EE600E9002007402F09002017400F080AF
:100B7B003D900201E0C3941440349002017400F0E4
:100B8B00900202E0900203F09002027400F09002D7
:100B9B00007400F01201B680159002007400F09002
:100BAB0002017400F09002027400F01201B67F0192
:100BBB0002037CC082C08353F1FE43F30C43FD045C
:100BCB0053FDF77586C075C2D875C50B75C402C2C7
:100BDB008BD2AA9002437400F09002447400F0D0C0
:100BEB0083D0820200F389C1E586A2E150FA5386D5
:100BFB00FD0200F374F7120310EAFEEBFF80128E76
:100C0B00828F83E0F912022E8E828F83A3AE82AF86
:100C1B00838E828F83E070E77F0102037C74F7126F
:100C2B000310E9FE75F064EE84F875F00AC0F0EE7F
:100C3B0075F06484E5F0D0F084FFEE75F00A84E57E
:100C4B00F0F508E8C394014007743028F912022E1E
:100C5B0074302FF912022E74302508F912022E7FF0
:100C6B000102037CC082C083900243E0F8900244EF
:100C7B00E068700479008033900244E0F8790074E6
:100C8B002328F582740239F583E08A828B83F090F6
:100C9B000244E0F879002401F8E93400F97A207B6A
:100CAB000012027FEA900244F07901D083D08202D5
:100CBB0000F3E914600B14600F14601314601780B9
:100CCB001AEAA2E092948013EAA2E09281800CEAE5
:100CDB00A2E092908005EAA2E092910200F3C0821A
:100CEB00C08353F4EC43FE1353F3FD43FD02120197
:100CFB00DAD083D0820200F374F7120310E9FE7A84
:100D0B0001F91201C87F0102037CC082C083790103
:100D1B001201D479021201D479031201D47904128D
:100D2B0001D4D083D0820200F3E914600B14600D60
:100D3B0014600F1460118012639010800D63800299
:100D4B00800863900180036390020200F3C082C0AD
:100D5B0083D2819002217400F09002227400F0D0B3
:100D6B0083D0820200F3C082C083E9900222F0D0CC
:100D7B0083D0820200F3C082C083900221E0240161
:100D8B00F0900222E07004D2818013900222E0F8EE
:100D9B00900221E0C3985004C2818002D281D0839B
:100DAB00D0820200F343F28043F38053FD7F438FE5
:100DBB00800200F375B6B7E5B4A2E750FAE5BAF8CE
:100DCB00A9BB0200F3C082C08353F47F43FE8012A1
:100DDB00017AD083D0820200F3D2970200F3C2973C
:030DEB000200F310
:04000005000000DB1C
:00000001FF
